{
  "contractName": "ArticleStorage",
  "abi": [
    {
      "inputs": [
        {
          "internalType": "uint256",
          "name": "",
          "type": "uint256"
        }
      ],
      "name": "general",
      "outputs": [
        {
          "internalType": "address",
          "name": "owner",
          "type": "address"
        },
        {
          "internalType": "string",
          "name": "content",
          "type": "string"
        },
        {
          "internalType": "uint256",
          "name": "visibleWords",
          "type": "uint256"
        },
        {
          "internalType": "uint256",
          "name": "price",
          "type": "uint256"
        },
        {
          "internalType": "uint256",
          "name": "dateUploaded",
          "type": "uint256"
        },
        {
          "internalType": "uint256",
          "name": "aiRating",
          "type": "uint256"
        },
        {
          "internalType": "uint256",
          "name": "userRating",
          "type": "uint256"
        },
        {
          "internalType": "int256",
          "name": "latitude",
          "type": "int256"
        },
        {
          "internalType": "int256",
          "name": "longitude",
          "type": "int256"
        }
      ],
      "stateMutability": "view",
      "type": "function",
      "constant": true
    },
    {
      "inputs": [
        {
          "internalType": "uint256",
          "name": "",
          "type": "uint256"
        }
      ],
      "name": "stocks",
      "outputs": [
        {
          "internalType": "address",
          "name": "owner",
          "type": "address"
        },
        {
          "internalType": "string",
          "name": "content",
          "type": "string"
        },
        {
          "internalType": "uint256",
          "name": "visibleWords",
          "type": "uint256"
        },
        {
          "internalType": "uint256",
          "name": "price",
          "type": "uint256"
        },
        {
          "internalType": "uint256",
          "name": "dateUploaded",
          "type": "uint256"
        },
        {
          "internalType": "uint256",
          "name": "aiRating",
          "type": "uint256"
        },
        {
          "internalType": "uint256",
          "name": "userRating",
          "type": "uint256"
        },
        {
          "internalType": "uint256",
          "name": "startDate",
          "type": "uint256"
        },
        {
          "internalType": "uint256",
          "name": "endDate",
          "type": "uint256"
        }
      ],
      "stateMutability": "view",
      "type": "function",
      "constant": true
    },
    {
      "inputs": [
        {
          "internalType": "string[]",
          "name": "_tags",
          "type": "string[]"
        },
        {
          "internalType": "string",
          "name": "_content",
          "type": "string"
        },
        {
          "internalType": "uint256",
          "name": "_visibleWords",
          "type": "uint256"
        },
        {
          "internalType": "uint256",
          "name": "_price",
          "type": "uint256"
        },
        {
          "internalType": "uint256",
          "name": "_aiRating",
          "type": "uint256"
        },
        {
          "internalType": "uint256",
          "name": "_userRating",
          "type": "uint256"
        },
        {
          "internalType": "uint256",
          "name": "_startDate",
          "type": "uint256"
        },
        {
          "internalType": "uint256",
          "name": "_endDate",
          "type": "uint256"
        }
      ],
      "name": "storeStockArticle",
      "outputs": [],
      "stateMutability": "nonpayable",
      "type": "function"
    },
    {
      "inputs": [
        {
          "internalType": "string[]",
          "name": "_tags",
          "type": "string[]"
        },
        {
          "internalType": "string",
          "name": "_content",
          "type": "string"
        },
        {
          "internalType": "uint256",
          "name": "_visibleWords",
          "type": "uint256"
        },
        {
          "internalType": "uint256",
          "name": "_price",
          "type": "uint256"
        },
        {
          "internalType": "uint256",
          "name": "_aiRating",
          "type": "uint256"
        },
        {
          "internalType": "uint256",
          "name": "_userRating",
          "type": "uint256"
        },
        {
          "internalType": "int256",
          "name": "_latitude",
          "type": "int256"
        },
        {
          "internalType": "int256",
          "name": "_longitude",
          "type": "int256"
        }
      ],
      "name": "storeGeneralArticle",
      "outputs": [],
      "stateMutability": "nonpayable",
      "type": "function"
    },
    {
      "inputs": [
        {
          "internalType": "uint256",
          "name": "index",
          "type": "uint256"
        }
      ],
      "name": "getStockArticle",
      "outputs": [
        {
          "internalType": "address",
          "name": "",
          "type": "address"
        },
        {
          "internalType": "string[]",
          "name": "",
          "type": "string[]"
        },
        {
          "internalType": "string",
          "name": "",
          "type": "string"
        },
        {
          "internalType": "uint256",
          "name": "",
          "type": "uint256"
        },
        {
          "internalType": "uint256",
          "name": "",
          "type": "uint256"
        },
        {
          "internalType": "uint256",
          "name": "",
          "type": "uint256"
        },
        {
          "internalType": "uint256",
          "name": "",
          "type": "uint256"
        },
        {
          "internalType": "uint256",
          "name": "",
          "type": "uint256"
        },
        {
          "internalType": "address[]",
          "name": "",
          "type": "address[]"
        },
        {
          "internalType": "uint256",
          "name": "",
          "type": "uint256"
        },
        {
          "internalType": "uint256",
          "name": "",
          "type": "uint256"
        }
      ],
      "stateMutability": "view",
      "type": "function",
      "constant": true
    },
    {
      "inputs": [
        {
          "internalType": "uint256",
          "name": "index",
          "type": "uint256"
        }
      ],
      "name": "getGeneralArticle",
      "outputs": [
        {
          "internalType": "address",
          "name": "",
          "type": "address"
        },
        {
          "internalType": "string[]",
          "name": "",
          "type": "string[]"
        },
        {
          "internalType": "string",
          "name": "",
          "type": "string"
        },
        {
          "internalType": "uint256",
          "name": "",
          "type": "uint256"
        },
        {
          "internalType": "uint256",
          "name": "",
          "type": "uint256"
        },
        {
          "internalType": "uint256",
          "name": "",
          "type": "uint256"
        },
        {
          "internalType": "uint256",
          "name": "",
          "type": "uint256"
        },
        {
          "internalType": "uint256",
          "name": "",
          "type": "uint256"
        },
        {
          "internalType": "address[]",
          "name": "",
          "type": "address[]"
        },
        {
          "internalType": "int256",
          "name": "",
          "type": "int256"
        },
        {
          "internalType": "int256",
          "name": "",
          "type": "int256"
        }
      ],
      "stateMutability": "view",
      "type": "function",
      "constant": true
    },
    {
      "inputs": [
        {
          "internalType": "uint256",
          "name": "index",
          "type": "uint256"
        }
      ],
      "name": "payForStockArticle",
      "outputs": [],
      "stateMutability": "payable",
      "type": "function",
      "payable": true
    },
    {
      "inputs": [
        {
          "internalType": "uint256",
          "name": "index",
          "type": "uint256"
        }
      ],
      "name": "payForGeneralArticle",
      "outputs": [],
      "stateMutability": "payable",
      "type": "function",
      "payable": true
    }
  ],
  "bytecode": "0x6080604052348015600e575f80fd5b5061203c8061001c5f395ff3fe60806040526004361061007a575f3560e01c80639ad449aa1161004d5780639ad449aa14610176578063ae36715f146101ba578063c3a27c23146101e2578063ee06aaec146101fe5761007a565b8063226b876c1461007e5780634425d74e146100c257806349e251f61461010857806357152d4514610130575b5f80fd5b348015610089575f80fd5b506100a4600480360381019061009f9190611273565b61021a565b6040516100b99998979695949392919061135c565b60405180910390f35b3480156100cd575f80fd5b506100e860048036038101906100e39190611273565b610317565b6040516100ff9b9a999897969594939291906115c0565b60405180910390f35b348015610113575f80fd5b5061012e6004803603810190610129919061188c565b610682565b005b34801561013b575f80fd5b5061015660048036038101906101519190611273565b6107fc565b60405161016d9b9a99989796959493929190611975565b60405180910390f35b348015610181575f80fd5b5061019c60048036038101906101979190611273565b610b65565b6040516101b199989796959493929190611a33565b60405180910390f35b3480156101c5575f80fd5b506101e060048036038101906101db9190611aef565b610c63565b005b6101fc60048036038101906101f79190611273565b610dde565b005b61021860048036038101906102139190611273565b610f5b565b005b5f8181548110610228575f80fd5b905f5260205f2090600b02015f91509050805f015f9054906101000a900473ffffffffffffffffffffffffffffffffffffffff169080600201805461026c90611c05565b80601f016020809104026020016040519081016040528092919081815260200182805461029890611c05565b80156102e35780601f106102ba576101008083540402835291602001916102e3565b820191905f5260205f20905b8154815290600101906020018083116102c657829003601f168201915b50505050509080600301549080600401549080600501549080600601549080600701549080600901549080600a0154905089565b5f6060805f805f805f60605f806001805490508c1061036b576040517f08c379a000000000000000000000000000000000000000000000000000000000815260040161036290611c7f565b60405180910390fd5b5f60018d815481106103805761037f611c9d565b5b905f5260205f2090600b0201604051806101600160405290815f82015f9054906101000a900473ffffffffffffffffffffffffffffffffffffffff1673ffffffffffffffffffffffffffffffffffffffff1673ffffffffffffffffffffffffffffffffffffffff16815260200160018201805480602002602001604051908101604052809291908181526020015f905b828210156104b8578382905f5260205f2001805461042d90611c05565b80601f016020809104026020016040519081016040528092919081815260200182805461045990611c05565b80156104a45780601f1061047b576101008083540402835291602001916104a4565b820191905f5260205f20905b81548152906001019060200180831161048757829003601f168201915b505050505081526020019060010190610410565b5050505081526020016002820180546104d090611c05565b80601f01602080910402602001604051908101604052809291908181526020018280546104fc90611c05565b80156105475780601f1061051e57610100808354040283529160200191610547565b820191905f5260205f20905b81548152906001019060200180831161052a57829003601f168201915b5050505050815260200160038201548152602001600482015481526020016005820154815260200160068201548152602001600782015481526020016008820180548060200260200160405190810160405280929190818152602001828054801561060457602002820191905f5260205f20905b815f9054906101000a900473ffffffffffffffffffffffffffffffffffffffff1673ffffffffffffffffffffffffffffffffffffffff16815260200190600101908083116105bb575b5050505050815260200160098201548152602001600a820154815250509050805f015181602001518260400151836060015184608001518560a001518660c001518760e001518861010001518961012001518a61014001519b509b509b509b509b509b509b509b509b509b509b505091939597999b90929496989a50565b60605f6040518061016001604052803373ffffffffffffffffffffffffffffffffffffffff1681526020018b81526020018a81526020018981526020018881526020014281526020018781526020018681526020018381526020018581526020018481525090505f81908060018154018082558091505060019003905f5260205f2090600b02015f909190919091505f820151815f015f6101000a81548173ffffffffffffffffffffffffffffffffffffffff021916908373ffffffffffffffffffffffffffffffffffffffff16021790555060208201518160010190805190602001906107719291906110d6565b5060408201518160020190816107879190611e67565b50606082015181600301556080820151816004015560a0820151816005015560c0820151816006015560e082015181600701556101008201518160080190805190602001906107d792919061112d565b50610120820151816009015561014082015181600a0155505050505050505050505050565b5f6060805f805f805f60605f805f805490508c1061084f576040517f08c379a000000000000000000000000000000000000000000000000000000000815260040161084690611f80565b60405180910390fd5b5f808d8154811061086357610862611c9d565b5b905f5260205f2090600b0201604051806101600160405290815f82015f9054906101000a900473ffffffffffffffffffffffffffffffffffffffff1673ffffffffffffffffffffffffffffffffffffffff1673ffffffffffffffffffffffffffffffffffffffff16815260200160018201805480602002602001604051908101604052809291908181526020015f905b8282101561099b578382905f5260205f2001805461091090611c05565b80601f016020809104026020016040519081016040528092919081815260200182805461093c90611c05565b80156109875780601f1061095e57610100808354040283529160200191610987565b820191905f5260205f20905b81548152906001019060200180831161096a57829003601f168201915b5050505050815260200190600101906108f3565b5050505081526020016002820180546109b390611c05565b80601f01602080910402602001604051908101604052809291908181526020018280546109df90611c05565b8015610a2a5780601f10610a0157610100808354040283529160200191610a2a565b820191905f5260205f20905b815481529060010190602001808311610a0d57829003601f168201915b50505050508152602001600382015481526020016004820154815260200160058201548152602001600682015481526020016007820154815260200160088201805480602002602001604051908101604052809291908181526020018280548015610ae757602002820191905f5260205f20905b815f9054906101000a900473ffffffffffffffffffffffffffffffffffffffff1673ffffffffffffffffffffffffffffffffffffffff1681526020019060010190808311610a9e575b5050505050815260200160098201548152602001600a820154815250509050805f015181602001518260400151836060015184608001518560a001518660c001518760e001518861010001518961012001518a61014001519b509b509b509b509b509b509b509b509b509b509b505091939597999b90929496989a50565b60018181548110610b74575f80fd5b905f5260205f2090600b02015f91509050805f015f9054906101000a900473ffffffffffffffffffffffffffffffffffffffff1690806002018054610bb890611c05565b80601f0160208091040260200160405190810160405280929190818152602001828054610be490611c05565b8015610c2f5780601f10610c0657610100808354040283529160200191610c2f565b820191905f5260205f20905b815481529060010190602001808311610c1257829003601f168201915b50505050509080600301549080600401549080600501549080600601549080600701549080600901549080600a0154905089565b60605f6040518061016001604052803373ffffffffffffffffffffffffffffffffffffffff1681526020018b81526020018a8152602001898152602001888152602001428152602001878152602001868152602001838152602001858152602001848152509050600181908060018154018082558091505060019003905f5260205f2090600b02015f909190919091505f820151815f015f6101000a81548173ffffffffffffffffffffffffffffffffffffffff021916908373ffffffffffffffffffffffffffffffffffffffff1602179055506020820151816001019080519060200190610d539291906110d6565b506040820151816002019081610d699190611e67565b50606082015181600301556080820151816004015560a0820151816005015560c0820151816006015560e08201518160070155610100820151816008019080519060200190610db992919061112d565b50610120820151816009015561014082015181600a0155505050505050505050505050565b6001805490508110610e25576040517f08c379a0000000000000000000000000000000000000000000000000000000008152600401610e1c90611c7f565b60405180910390fd5b5f60018281548110610e3a57610e39611c9d565b5b905f5260205f2090600b020190508060040154341015610e8f576040517f08c379a0000000000000000000000000000000000000000000000000000000008152600401610e8690611fe8565b60405180910390fd5b805f015f9054906101000a900473ffffffffffffffffffffffffffffffffffffffff1673ffffffffffffffffffffffffffffffffffffffff166108fc3490811502906040515f60405180830381858888f19350505050158015610ef4573d5f803e3d5ffd5b508060080133908060018154018082558091505060019003905f5260205f20015f9091909190916101000a81548173ffffffffffffffffffffffffffffffffffffffff021916908373ffffffffffffffffffffffffffffffffffffffff1602179055505050565b5f805490508110610fa1576040517f08c379a0000000000000000000000000000000000000000000000000000000008152600401610f9890611f80565b60405180910390fd5b5f808281548110610fb557610fb4611c9d565b5b905f5260205f2090600b02019050806004015434101561100a576040517f08c379a000000000000000000000000000000000000000000000000000000000815260040161100190611fe8565b60405180910390fd5b805f015f9054906101000a900473ffffffffffffffffffffffffffffffffffffffff1673ffffffffffffffffffffffffffffffffffffffff166108fc3490811502906040515f60405180830381858888f1935050505015801561106f573d5f803e3d5ffd5b508060080133908060018154018082558091505060019003905f5260205f20015f9091909190916101000a81548173ffffffffffffffffffffffffffffffffffffffff021916908373ffffffffffffffffffffffffffffffffffffffff1602179055505050565b828054828255905f5260205f2090810192821561111c579160200282015b8281111561111b57825182908161110b9190611e67565b50916020019190600101906110f4565b5b50905061112991906111b4565b5090565b828054828255905f5260205f209081019282156111a3579160200282015b828111156111a2578251825f6101000a81548173ffffffffffffffffffffffffffffffffffffffff021916908373ffffffffffffffffffffffffffffffffffffffff1602179055509160200191906001019061114b565b5b5090506111b091906111d7565b5090565b5b808211156111d3575f81816111ca91906111f2565b506001016111b5565b5090565b5b808211156111ee575f815f9055506001016111d8565b5090565b5080546111fe90611c05565b5f825580601f1061120f575061122c565b601f0160209004905f5260205f209081019061122b91906111d7565b5b50565b5f604051905090565b5f80fd5b5f80fd5b5f819050919050565b61125281611240565b811461125c575f80fd5b50565b5f8135905061126d81611249565b92915050565b5f6020828403121561128857611287611238565b5b5f6112958482850161125f565b91505092915050565b5f73ffffffffffffffffffffffffffffffffffffffff82169050919050565b5f6112c78261129e565b9050919050565b6112d7816112bd565b82525050565b5f81519050919050565b5f82825260208201905092915050565b8281835e5f83830152505050565b5f601f19601f8301169050919050565b5f61131f826112dd565b61132981856112e7565b93506113398185602086016112f7565b61134281611305565b840191505092915050565b61135681611240565b82525050565b5f610120820190506113705f83018c6112ce565b8181036020830152611382818b611315565b9050611391604083018a61134d565b61139e606083018961134d565b6113ab608083018861134d565b6113b860a083018761134d565b6113c560c083018661134d565b6113d260e083018561134d565b6113e061010083018461134d565b9a9950505050505050505050565b5f81519050919050565b5f82825260208201905092915050565b5f819050602082019050919050565b5f82825260208201905092915050565b5f611431826112dd565b61143b8185611417565b935061144b8185602086016112f7565b61145481611305565b840191505092915050565b5f61146a8383611427565b905092915050565b5f602082019050919050565b5f611488826113ee565b61149281856113f8565b9350836020820285016114a485611408565b805f5b858110156114df57848403895281516114c0858261145f565b94506114cb83611472565b925060208a019950506001810190506114a7565b50829750879550505050505092915050565b5f81519050919050565b5f82825260208201905092915050565b5f819050602082019050919050565b611523816112bd565b82525050565b5f611534838361151a565b60208301905092915050565b5f602082019050919050565b5f611556826114f1565b61156081856114fb565b935061156b8361150b565b805f5b8381101561159b5781516115828882611529565b975061158d83611540565b92505060018101905061156e565b5085935050505092915050565b5f819050919050565b6115ba816115a8565b82525050565b5f610160820190506115d45f83018e6112ce565b81810360208301526115e6818d61147e565b905081810360408301526115fa818c611315565b9050611609606083018b61134d565b611616608083018a61134d565b61162360a083018961134d565b61163060c083018861134d565b61163d60e083018761134d565b818103610100830152611650818661154c565b90506116606101208301856115b1565b61166e6101408301846115b1565b9c9b505050505050505050505050565b5f80fd5b7f4e487b71000000000000000000000000000000000000000000000000000000005f52604160045260245ffd5b6116b882611305565b810181811067ffffffffffffffff821117156116d7576116d6611682565b5b80604052505050565b5f6116e961122f565b90506116f582826116af565b919050565b5f67ffffffffffffffff82111561171457611713611682565b5b602082029050602081019050919050565b5f80fd5b5f80fd5b5f67ffffffffffffffff82111561174757611746611682565b5b61175082611305565b9050602081019050919050565b828183375f83830152505050565b5f61177d6117788461172d565b6116e0565b90508281526020810184848401111561179957611798611729565b5b6117a484828561175d565b509392505050565b5f82601f8301126117c0576117bf61167e565b5b81356117d084826020860161176b565b91505092915050565b5f6117eb6117e6846116fa565b6116e0565b9050808382526020820190506020840283018581111561180e5761180d611725565b5b835b8181101561185557803567ffffffffffffffff8111156118335761183261167e565b5b80860161184089826117ac565b85526020850194505050602081019050611810565b5050509392505050565b5f82601f8301126118735761187261167e565b5b81356118838482602086016117d9565b91505092915050565b5f805f805f805f80610100898b0312156118a9576118a8611238565b5b5f89013567ffffffffffffffff8111156118c6576118c561123c565b5b6118d28b828c0161185f565b985050602089013567ffffffffffffffff8111156118f3576118f261123c565b5b6118ff8b828c016117ac565b97505060406119108b828c0161125f565b96505060606119218b828c0161125f565b95505060806119328b828c0161125f565b94505060a06119438b828c0161125f565b93505060c06119548b828c0161125f565b92505060e06119658b828c0161125f565b9150509295985092959890939650565b5f610160820190506119895f83018e6112ce565b818103602083015261199b818d61147e565b905081810360408301526119af818c611315565b90506119be606083018b61134d565b6119cb608083018a61134d565b6119d860a083018961134d565b6119e560c083018861134d565b6119f260e083018761134d565b818103610100830152611a05818661154c565b9050611a1561012083018561134d565b611a2361014083018461134d565b9c9b505050505050505050505050565b5f61012082019050611a475f83018c6112ce565b8181036020830152611a59818b611315565b9050611a68604083018a61134d565b611a75606083018961134d565b611a82608083018861134d565b611a8f60a083018761134d565b611a9c60c083018661134d565b611aa960e08301856115b1565b611ab76101008301846115b1565b9a9950505050505050505050565b611ace816115a8565b8114611ad8575f80fd5b50565b5f81359050611ae981611ac5565b92915050565b5f805f805f805f80610100898b031215611b0c57611b0b611238565b5b5f89013567ffffffffffffffff811115611b2957611b2861123c565b5b611b358b828c0161185f565b985050602089013567ffffffffffffffff811115611b5657611b5561123c565b5b611b628b828c016117ac565b9750506040611b738b828c0161125f565b9650506060611b848b828c0161125f565b9550506080611b958b828c0161125f565b94505060a0611ba68b828c0161125f565b93505060c0611bb78b828c01611adb565b92505060e0611bc88b828c01611adb565b9150509295985092959890939650565b7f4e487b71000000000000000000000000000000000000000000000000000000005f52602260045260245ffd5b5f6002820490506001821680611c1c57607f821691505b602082108103611c2f57611c2e611bd8565b5b50919050565b7f496e646578206f7574206f6620626f756e647320666f722067656e6572616c005f82015250565b5f611c69601f836112e7565b9150611c7482611c35565b602082019050919050565b5f6020820190508181035f830152611c9681611c5d565b9050919050565b7f4e487b71000000000000000000000000000000000000000000000000000000005f52603260045260245ffd5b5f819050815f5260205f209050919050565b5f6020601f8301049050919050565b5f82821b905092915050565b5f60088302611d267fffffffffffffffffffffffffffffffffffffffffffffffffffffffffffffffff82611ceb565b611d308683611ceb565b95508019841693508086168417925050509392505050565b5f819050919050565b5f611d6b611d66611d6184611240565b611d48565b611240565b9050919050565b5f819050919050565b611d8483611d51565b611d98611d9082611d72565b848454611cf7565b825550505050565b5f90565b611dac611da0565b611db7818484611d7b565b505050565b5b81811015611dda57611dcf5f82611da4565b600181019050611dbd565b5050565b601f821115611e1f57611df081611cca565b611df984611cdc565b81016020851015611e08578190505b611e1c611e1485611cdc565b830182611dbc565b50505b505050565b5f82821c905092915050565b5f611e3f5f1984600802611e24565b1980831691505092915050565b5f611e578383611e30565b9150826002028217905092915050565b611e70826112dd565b67ffffffffffffffff811115611e8957611e88611682565b5b611e938254611c05565b611e9e828285611dde565b5f60209050601f831160018114611ecf575f8415611ebd578287015190505b611ec78582611e4c565b865550611f2e565b601f198416611edd86611cca565b5f5b82811015611f0457848901518255600182019150602085019450602081019050611edf565b86831015611f215784890151611f1d601f891682611e30565b8355505b6001600288020188555050505b505050505050565b7f496e646578206f7574206f6620626f756e647320666f722073746f636b7300005f82015250565b5f611f6a601e836112e7565b9150611f7582611f36565b602082019050919050565b5f6020820190508181035f830152611f9781611f5e565b9050919050565b7f496e73756666696369656e74207061796d656e740000000000000000000000005f82015250565b5f611fd26014836112e7565b9150611fdd82611f9e565b602082019050919050565b5f6020820190508181035f830152611fff81611fc6565b905091905056fea2646970667358221220925873b560a9055239d33849ae6bd5f1fcab70b5742774e68e57a59fc73f86dd64736f6c634300081a0033",
  "immutableReferences": {},
  "source": "// SPDX-License-Identifier: MIT\r\npragma solidity ^0.8.0;\r\n\r\ncontract ArticleStorage {\r\n    struct StockArticle {\r\n        address owner;\r\n        string[] tags;\r\n        string content;\r\n        uint256 visibleWords;\r\n        uint256 price;\r\n        uint256 dateUploaded;\r\n        uint256 aiRating;\r\n        uint256 userRating;\r\n        address[] usersAllowed;\r\n        uint256 startDate;\r\n        uint256 endDate;\r\n    }\r\n\r\n    struct GeneralArticle {\r\n        address owner;\r\n        string[] tags;\r\n        string content;\r\n        uint256 visibleWords;\r\n        uint256 price;\r\n        uint256 dateUploaded;\r\n        uint256 aiRating;\r\n        uint256 userRating;\r\n        address[] usersAllowed;\r\n        int256 latitude;\r\n        int256 longitude;\r\n    }\r\n\r\n    StockArticle[] public stocks;\r\n    GeneralArticle[] public general;\r\n\r\n    function storeStockArticle(\r\n        string[] memory _tags, \r\n        string memory _content, \r\n        uint256 _visibleWords, \r\n        uint256 _price, \r\n        uint256 _aiRating, \r\n        uint256 _userRating, \r\n        uint256 _startDate,\r\n        uint256 _endDate\r\n    ) public {\r\n        address[] memory emptyArray;\r\n\r\n        StockArticle memory newStockArticle = StockArticle({\r\n            owner: msg.sender,\r\n            tags: _tags,\r\n            content: _content,\r\n            visibleWords: _visibleWords,\r\n            price: _price,\r\n            dateUploaded: block.timestamp,\r\n            aiRating: _aiRating,\r\n            userRating: _userRating,\r\n            usersAllowed: emptyArray,\r\n            startDate: _startDate,\r\n            endDate: _endDate\r\n        });\r\n\r\n        stocks.push(newStockArticle);\r\n    }\r\n\r\n    function storeGeneralArticle(\r\n        string[] memory _tags, \r\n        string memory _content, \r\n        uint256 _visibleWords, \r\n        uint256 _price, \r\n        uint256 _aiRating, \r\n        uint256 _userRating, \r\n        int256 _latitude,\r\n        int256 _longitude\r\n    ) public {\r\n        address[] memory emptyArray;\r\n        GeneralArticle memory newGeneralArticle = GeneralArticle({\r\n            owner: msg.sender,\r\n            tags: _tags,\r\n            content: _content,\r\n            visibleWords: _visibleWords,\r\n            price: _price,\r\n            dateUploaded: block.timestamp,\r\n            aiRating: _aiRating,\r\n            userRating: _userRating,\r\n            usersAllowed: emptyArray,\r\n            latitude: _latitude,\r\n            longitude: _longitude\r\n        });\r\n        \r\n        general.push(newGeneralArticle);\r\n    }\r\n\r\n    function getStockArticle(uint256 index) public view returns (\r\n        address, \r\n        string[] memory, \r\n        string memory, \r\n        uint256, \r\n        uint256, \r\n        uint256, \r\n        uint256, \r\n        uint256, \r\n        address[] memory,\r\n        uint256,\r\n        uint256\r\n    ) {\r\n        require(index < stocks.length, \"Index out of bounds for stocks\");\r\n        StockArticle memory article = stocks[index];\r\n        return (\r\n            article.owner, \r\n            article.tags, \r\n            article.content, \r\n            article.visibleWords, \r\n            article.price, \r\n            article.dateUploaded, \r\n            article.aiRating, \r\n            article.userRating,\r\n            article.usersAllowed,\r\n            article.startDate,\r\n            article.endDate\r\n        );\r\n    }\r\n\r\n    function getGeneralArticle(uint256 index) public view returns (\r\n        address, \r\n        string[] memory, \r\n        string memory, \r\n        uint256, \r\n        uint256, \r\n        uint256, \r\n        uint256, \r\n        uint256,\r\n        address[] memory,\r\n        int256,\r\n        int256\r\n    ) {\r\n        require(index < general.length, \"Index out of bounds for general\");\r\n        GeneralArticle memory article = general[index];\r\n        return (\r\n            article.owner, \r\n            article.tags, \r\n            article.content, \r\n            article.visibleWords, \r\n            article.price, \r\n            article.dateUploaded, \r\n            article.aiRating, \r\n            article.userRating,\r\n            article.usersAllowed,\r\n            article.latitude,\r\n            article.longitude\r\n        );\r\n    }\r\n\r\n    function payForStockArticle(uint256 index) public payable {\r\n        require(index < stocks.length, \"Index out of bounds for stocks\");\r\n        StockArticle storage article = stocks[index];\r\n\r\n        require(msg.value >= article.price, \"Insufficient payment\");\r\n\r\n        payable(article.owner).transfer(msg.value);\r\n\r\n        article.usersAllowed.push(msg.sender);\r\n    }\r\n\r\n    function payForGeneralArticle(uint256 index) public payable {\r\n        require(index < general.length, \"Index out of bounds for general\");\r\n        GeneralArticle storage article = general[index];\r\n\r\n        require(msg.value >= article.price, \"Insufficient payment\");\r\n\r\n        payable(article.owner).transfer(msg.value);\r\n\r\n        article.usersAllowed.push(msg.sender);\r\n    }\r\n}\r\n",
  "sourcePath": "E:\\website\\Bitcoin-games\\Web3\\contracts\\mainScript.sol",
  "compiler": {
    "name": "solc",
    "version": "0.8.26+commit.8a97fa7a.Emscripten.clang"
  },
  "schemaVersion": "3.4.16",
  "updatedAt": "2024-07-05T13:25:21.833Z",
  "networkType": "ethereum",
  "devdoc": {
    "kind": "dev",
    "methods": {},
    "version": 1
  },
  "userdoc": {
    "kind": "user",
    "methods": {},
    "version": 1
  }
}