{
  "contractName": "ArticleStorage",
  "abi": [
    {
      "inputs": [
        {
          "internalType": "address",
          "name": "",
          "type": "address"
        },
        {
          "internalType": "uint256",
          "name": "",
          "type": "uint256"
        }
      ],
      "name": "Generalopt",
      "outputs": [
        {
          "internalType": "int256",
          "name": "",
          "type": "int256"
        }
      ],
      "stateMutability": "view",
      "type": "function"
    },
    {
      "inputs": [
        {
          "internalType": "uint256",
          "name": "",
          "type": "uint256"
        }
      ],
      "name": "general",
      "outputs": [
        {
          "internalType": "uint256",
          "name": "index",
          "type": "uint256"
        },
        {
          "internalType": "address",
          "name": "owner",
          "type": "address"
        },
        {
          "internalType": "string",
          "name": "image",
          "type": "string"
        },
        {
          "internalType": "string",
          "name": "content",
          "type": "string"
        },
        {
          "internalType": "uint256",
          "name": "visibleWords",
          "type": "uint256"
        },
        {
          "internalType": "uint256",
          "name": "price",
          "type": "uint256"
        },
        {
          "internalType": "uint256",
          "name": "dateUploaded",
          "type": "uint256"
        },
        {
          "internalType": "uint256",
          "name": "aiRating",
          "type": "uint256"
        },
        {
          "internalType": "uint256",
          "name": "userRating",
          "type": "uint256"
        },
        {
          "internalType": "int256",
          "name": "latitude",
          "type": "int256"
        },
        {
          "internalType": "int256",
          "name": "longitude",
          "type": "int256"
        }
      ],
      "stateMutability": "view",
      "type": "function"
    },
    {
      "inputs": [
        {
          "internalType": "address",
          "name": "",
          "type": "address"
        },
        {
          "internalType": "uint256",
          "name": "",
          "type": "uint256"
        }
      ],
      "name": "stockopt",
      "outputs": [
        {
          "internalType": "int256",
          "name": "",
          "type": "int256"
        }
      ],
      "stateMutability": "view",
      "type": "function"
    },
    {
      "inputs": [
        {
          "internalType": "uint256",
          "name": "",
          "type": "uint256"
        }
      ],
      "name": "stocks",
      "outputs": [
        {
          "internalType": "uint256",
          "name": "index",
          "type": "uint256"
        },
        {
          "internalType": "address",
          "name": "owner",
          "type": "address"
        },
        {
          "internalType": "string",
          "name": "image",
          "type": "string"
        },
        {
          "internalType": "string",
          "name": "content",
          "type": "string"
        },
        {
          "internalType": "uint256",
          "name": "visibleWords",
          "type": "uint256"
        },
        {
          "internalType": "uint256",
          "name": "price",
          "type": "uint256"
        },
        {
          "internalType": "uint256",
          "name": "dateUploaded",
          "type": "uint256"
        },
        {
          "internalType": "uint256",
          "name": "aiRating",
          "type": "uint256"
        },
        {
          "internalType": "uint256",
          "name": "userRating",
          "type": "uint256"
        },
        {
          "internalType": "uint256",
          "name": "startDate",
          "type": "uint256"
        },
        {
          "internalType": "uint256",
          "name": "endDate",
          "type": "uint256"
        }
      ],
      "stateMutability": "view",
      "type": "function"
    },
    {
      "inputs": [
        {
          "internalType": "string[]",
          "name": "_tags",
          "type": "string[]"
        },
        {
          "internalType": "string",
          "name": "_image",
          "type": "string"
        },
        {
          "internalType": "string",
          "name": "_content",
          "type": "string"
        },
        {
          "internalType": "uint256",
          "name": "_visibleWords",
          "type": "uint256"
        },
        {
          "internalType": "uint256",
          "name": "_price",
          "type": "uint256"
        },
        {
          "internalType": "uint256",
          "name": "_aiRating",
          "type": "uint256"
        },
        {
          "internalType": "uint256",
          "name": "_userRating",
          "type": "uint256"
        },
        {
          "internalType": "uint256",
          "name": "_startDate",
          "type": "uint256"
        },
        {
          "internalType": "uint256",
          "name": "_endDate",
          "type": "uint256"
        }
      ],
      "name": "storeStockArticle",
      "outputs": [],
      "stateMutability": "nonpayable",
      "type": "function"
    },
    {
      "inputs": [
        {
          "internalType": "string[]",
          "name": "_tags",
          "type": "string[]"
        },
        {
          "internalType": "string",
          "name": "_image",
          "type": "string"
        },
        {
          "internalType": "string",
          "name": "_content",
          "type": "string"
        },
        {
          "internalType": "uint256",
          "name": "_visibleWords",
          "type": "uint256"
        },
        {
          "internalType": "uint256",
          "name": "_price",
          "type": "uint256"
        },
        {
          "internalType": "uint256",
          "name": "_aiRating",
          "type": "uint256"
        },
        {
          "internalType": "uint256",
          "name": "_userRating",
          "type": "uint256"
        },
        {
          "internalType": "int256",
          "name": "_latitude",
          "type": "int256"
        },
        {
          "internalType": "int256",
          "name": "_longitude",
          "type": "int256"
        }
      ],
      "name": "storeGeneralArticle",
      "outputs": [],
      "stateMutability": "nonpayable",
      "type": "function"
    },
    {
      "inputs": [
        {
          "internalType": "uint256",
          "name": "index",
          "type": "uint256"
        }
      ],
      "name": "getStockArticle",
      "outputs": [
        {
          "internalType": "uint256",
          "name": "",
          "type": "uint256"
        },
        {
          "internalType": "address",
          "name": "",
          "type": "address"
        },
        {
          "internalType": "string[]",
          "name": "",
          "type": "string[]"
        },
        {
          "internalType": "string",
          "name": "",
          "type": "string"
        },
        {
          "internalType": "string",
          "name": "",
          "type": "string"
        },
        {
          "internalType": "uint256",
          "name": "",
          "type": "uint256"
        },
        {
          "internalType": "uint256",
          "name": "",
          "type": "uint256"
        },
        {
          "internalType": "uint256",
          "name": "",
          "type": "uint256"
        },
        {
          "internalType": "uint256",
          "name": "",
          "type": "uint256"
        },
        {
          "internalType": "uint256",
          "name": "",
          "type": "uint256"
        },
        {
          "internalType": "uint256",
          "name": "",
          "type": "uint256"
        },
        {
          "internalType": "uint256",
          "name": "",
          "type": "uint256"
        }
      ],
      "stateMutability": "view",
      "type": "function"
    },
    {
      "inputs": [
        {
          "internalType": "uint256",
          "name": "index",
          "type": "uint256"
        }
      ],
      "name": "getGeneralArticle",
      "outputs": [
        {
          "internalType": "uint256",
          "name": "",
          "type": "uint256"
        },
        {
          "internalType": "address",
          "name": "",
          "type": "address"
        },
        {
          "internalType": "string[]",
          "name": "",
          "type": "string[]"
        },
        {
          "internalType": "string",
          "name": "",
          "type": "string"
        },
        {
          "internalType": "string",
          "name": "",
          "type": "string"
        },
        {
          "internalType": "uint256",
          "name": "",
          "type": "uint256"
        },
        {
          "internalType": "uint256",
          "name": "",
          "type": "uint256"
        },
        {
          "internalType": "uint256",
          "name": "",
          "type": "uint256"
        },
        {
          "internalType": "uint256",
          "name": "",
          "type": "uint256"
        },
        {
          "internalType": "uint256",
          "name": "",
          "type": "uint256"
        },
        {
          "internalType": "int256",
          "name": "",
          "type": "int256"
        },
        {
          "internalType": "int256",
          "name": "",
          "type": "int256"
        }
      ],
      "stateMutability": "view",
      "type": "function"
    },
    {
      "inputs": [
        {
          "internalType": "uint256",
          "name": "index",
          "type": "uint256"
        }
      ],
      "name": "payForStockArticle",
      "outputs": [],
      "stateMutability": "payable",
      "type": "function"
    },
    {
      "inputs": [
        {
          "internalType": "uint256",
          "name": "index",
          "type": "uint256"
        }
      ],
      "name": "payForGeneralArticle",
      "outputs": [],
      "stateMutability": "payable",
      "type": "function"
    },
    {
      "inputs": [
        {
          "internalType": "address",
          "name": "user",
          "type": "address"
        }
      ],
      "name": "getStockOpt",
      "outputs": [
        {
          "internalType": "int256[]",
          "name": "",
          "type": "int256[]"
        }
      ],
      "stateMutability": "view",
      "type": "function"
    },
    {
      "inputs": [
        {
          "internalType": "address",
          "name": "user",
          "type": "address"
        }
      ],
      "name": "getGeneralOpt",
      "outputs": [
        {
          "internalType": "int256[]",
          "name": "",
          "type": "int256[]"
        }
      ],
      "stateMutability": "view",
      "type": "function"
    },
    {
      "inputs": [],
      "name": "getAllStockArticles",
      "outputs": [
        {
          "components": [
            {
              "internalType": "uint256",
              "name": "index",
              "type": "uint256"
            },
            {
              "internalType": "address",
              "name": "owner",
              "type": "address"
            },
            {
              "internalType": "string[]",
              "name": "tags",
              "type": "string[]"
            },
            {
              "internalType": "string",
              "name": "image",
              "type": "string"
            },
            {
              "internalType": "string",
              "name": "content",
              "type": "string"
            },
            {
              "internalType": "uint256",
              "name": "visibleWords",
              "type": "uint256"
            },
            {
              "internalType": "uint256",
              "name": "price",
              "type": "uint256"
            },
            {
              "internalType": "uint256",
              "name": "dateUploaded",
              "type": "uint256"
            },
            {
              "internalType": "uint256",
              "name": "aiRating",
              "type": "uint256"
            },
            {
              "internalType": "uint256",
              "name": "userRating",
              "type": "uint256"
            },
            {
              "internalType": "uint256",
              "name": "startDate",
              "type": "uint256"
            },
            {
              "internalType": "uint256",
              "name": "endDate",
              "type": "uint256"
            }
          ],
          "internalType": "struct ArticleStorage.StockArticle[]",
          "name": "",
          "type": "tuple[]"
        }
      ],
      "stateMutability": "view",
      "type": "function"
    },
    {
      "inputs": [],
      "name": "getAllGeneralArticles",
      "outputs": [
        {
          "components": [
            {
              "internalType": "uint256",
              "name": "index",
              "type": "uint256"
            },
            {
              "internalType": "address",
              "name": "owner",
              "type": "address"
            },
            {
              "internalType": "string[]",
              "name": "tags",
              "type": "string[]"
            },
            {
              "internalType": "string",
              "name": "image",
              "type": "string"
            },
            {
              "internalType": "string",
              "name": "content",
              "type": "string"
            },
            {
              "internalType": "uint256",
              "name": "visibleWords",
              "type": "uint256"
            },
            {
              "internalType": "uint256",
              "name": "price",
              "type": "uint256"
            },
            {
              "internalType": "uint256",
              "name": "dateUploaded",
              "type": "uint256"
            },
            {
              "internalType": "uint256",
              "name": "aiRating",
              "type": "uint256"
            },
            {
              "internalType": "uint256",
              "name": "userRating",
              "type": "uint256"
            },
            {
              "internalType": "int256",
              "name": "latitude",
              "type": "int256"
            },
            {
              "internalType": "int256",
              "name": "longitude",
              "type": "int256"
            }
          ],
          "internalType": "struct ArticleStorage.GeneralArticle[]",
          "name": "",
          "type": "tuple[]"
        }
      ],
      "stateMutability": "view",
      "type": "function"
    }
  ],
  "bytecode": "0x6080604052348015600e575f80fd5b506131148061001c5f395ff3fe6080604052600436106100dc575f3560e01c80639ad449aa1161007e578063c3a27c2311610058578063c3a27c231461033c578063ee06aaec14610358578063f5ffa27514610374578063febf43501461039e576100dc565b80639ad449aa146102905780639ae3eda9146102d6578063b155027c14610300576100dc565b80634425d74e116100ba5780634425d74e1461019e57806357152d45146101e55780637d28e60c1461022c578063809c69ee14610254576100dc565b806317c0a634146100e0578063226b876c1461011c57806323dc945b14610162575b5f80fd5b3480156100eb575f80fd5b5061010660048036038101906101019190611d6b565b6103c6565b6040516101139190611e56565b60405180910390f35b348015610127575f80fd5b50610142600480360381019061013d9190611ea9565b610459565b6040516101599b9a99989796959493929190611f62565b60405180910390f35b34801561016d575f80fd5b5061018860048036038101906101839190611d6b565b6105e8565b6040516101959190611e56565b60405180910390f35b3480156101a9575f80fd5b506101c460048036038101906101bf9190611ea9565b61067b565b6040516101dc9c9b9a9998979695949392919061212b565b60405180910390f35b3480156101f0575f80fd5b5061020b60048036038101906102069190611ea9565b6109fe565b6040516102239c9b9a999897969594939291906121f8565b60405180910390f35b348015610237575f80fd5b50610252600480360381019061024d91906124fd565b610d7f565b005b34801561025f575f80fd5b5061027a60048036038101906102759190612615565b610f6b565b6040516102879190612653565b60405180910390f35b34801561029b575f80fd5b506102b660048036038101906102b19190611ea9565b610f96565b6040516102cd9b9a9998979695949392919061266c565b60405180910390f35b3480156102e1575f80fd5b506102ea611126565b6040516102f7919061298e565b60405180910390f35b34801561030b575f80fd5b5061032660048036038101906103219190612615565b61141b565b6040516103339190612653565b60405180910390f35b61035660048036038101906103519190611ea9565b611446565b005b610372600480360381019061036d9190611ea9565b6115cc565b005b34801561037f575f80fd5b50610388611750565b6040516103959190612b78565b60405180910390f35b3480156103a9575f80fd5b506103c460048036038101906103bf9190612b98565b611a44565b005b606060035f8373ffffffffffffffffffffffffffffffffffffffff1673ffffffffffffffffffffffffffffffffffffffff1681526020019081526020015f2080548060200260200160405190810160405280929190818152602001828054801561044d57602002820191905f5260205f20905b815481526020019060010190808311610439575b50505050509050919050565b5f8181548110610467575f80fd5b905f5260205f2090600c02015f91509050805f015490806001015f9054906101000a900473ffffffffffffffffffffffffffffffffffffffff16908060030180546104b190612cdd565b80601f01602080910402602001604051908101604052809291908181526020018280546104dd90612cdd565b80156105285780601f106104ff57610100808354040283529160200191610528565b820191905f5260205f20905b81548152906001019060200180831161050b57829003601f168201915b50505050509080600401805461053d90612cdd565b80601f016020809104026020016040519081016040528092919081815260200182805461056990612cdd565b80156105b45780601f1061058b576101008083540402835291602001916105b4565b820191905f5260205f20905b81548152906001019060200180831161059757829003601f168201915b50505050509080600501549080600601549080600701549080600801549080600901549080600a01549080600b015490508b565b606060025f8373ffffffffffffffffffffffffffffffffffffffff1673ffffffffffffffffffffffffffffffffffffffff1681526020019081526020015f2080548060200260200160405190810160405280929190818152602001828054801561066f57602002820191905f5260205f20905b81548152602001906001019080831161065b575b50505050509050919050565b5f8060608060605f805f805f805f6001805490508d106106d0576040517f08c379a00000000000000000000000000000000000000000000000000000000081526004016106c790612d57565b60405180910390fd5b5f60018e815481106106e5576106e4612d75565b5b905f5260205f2090600c0201604051806101800160405290815f8201548152602001600182015f9054906101000a900473ffffffffffffffffffffffffffffffffffffffff1673ffffffffffffffffffffffffffffffffffffffff1673ffffffffffffffffffffffffffffffffffffffff16815260200160028201805480602002602001604051908101604052809291908181526020015f905b82821015610827578382905f5260205f2001805461079c90612cdd565b80601f01602080910402602001604051908101604052809291908181526020018280546107c890612cdd565b80156108135780601f106107ea57610100808354040283529160200191610813565b820191905f5260205f20905b8154815290600101906020018083116107f657829003601f168201915b50505050508152602001906001019061077f565b50505050815260200160038201805461083f90612cdd565b80601f016020809104026020016040519081016040528092919081815260200182805461086b90612cdd565b80156108b65780601f1061088d576101008083540402835291602001916108b6565b820191905f5260205f20905b81548152906001019060200180831161089957829003601f168201915b505050505081526020016004820180546108cf90612cdd565b80601f01602080910402602001604051908101604052809291908181526020018280546108fb90612cdd565b80156109465780601f1061091d57610100808354040283529160200191610946565b820191905f5260205f20905b81548152906001019060200180831161092957829003601f168201915b505050505081526020016005820154815260200160068201548152602001600782015481526020016008820154815260200160098201548152602001600a8201548152602001600b820154815250509050805f015181602001518260400151836060015184608001518560a001518660c001518760e001518861010001518961012001518a61014001518b61016001519c509c509c509c509c509c509c509c509c509c509c509c505091939597999b5091939597999b565b5f8060608060605f805f805f805f80805490508d10610a52576040517f08c379a0000000000000000000000000000000000000000000000000000000008152600401610a4990612dec565b60405180910390fd5b5f808e81548110610a6657610a65612d75565b5b905f5260205f2090600c0201604051806101800160405290815f8201548152602001600182015f9054906101000a900473ffffffffffffffffffffffffffffffffffffffff1673ffffffffffffffffffffffffffffffffffffffff1673ffffffffffffffffffffffffffffffffffffffff16815260200160028201805480602002602001604051908101604052809291908181526020015f905b82821015610ba8578382905f5260205f20018054610b1d90612cdd565b80601f0160208091040260200160405190810160405280929190818152602001828054610b4990612cdd565b8015610b945780601f10610b6b57610100808354040283529160200191610b94565b820191905f5260205f20905b815481529060010190602001808311610b7757829003601f168201915b505050505081526020019060010190610b00565b505050508152602001600382018054610bc090612cdd565b80601f0160208091040260200160405190810160405280929190818152602001828054610bec90612cdd565b8015610c375780601f10610c0e57610100808354040283529160200191610c37565b820191905f5260205f20905b815481529060010190602001808311610c1a57829003601f168201915b50505050508152602001600482018054610c5090612cdd565b80601f0160208091040260200160405190810160405280929190818152602001828054610c7c90612cdd565b8015610cc75780601f10610c9e57610100808354040283529160200191610cc7565b820191905f5260205f20905b815481529060010190602001808311610caa57829003601f168201915b505050505081526020016005820154815260200160068201548152602001600782015481526020016008820154815260200160098201548152602001600a8201548152602001600b820154815250509050805f015181602001518260400151836060015184608001518560a001518660c001518760e001518861010001518961012001518a61014001518b61016001519c509c509c509c509c509c509c509c509c509c509c509c505091939597999b5091939597999b565b5f60405180610180016040528060018054905081526020013373ffffffffffffffffffffffffffffffffffffffff1681526020018b81526020018a8152602001898152602001888152602001878152602001428152602001868152602001858152602001848152602001838152509050600181908060018154018082558091505060019003905f5260205f2090600c02015f909190919091505f820151815f01556020820151816001015f6101000a81548173ffffffffffffffffffffffffffffffffffffffff021916908373ffffffffffffffffffffffffffffffffffffffff1602179055506040820151816002019080519060200190610e82929190611c2e565b506060820151816003019081610e989190612fa7565b506080820151816004019081610eae9190612fa7565b5060a0820151816005015560c0820151816006015560e082015181600701556101008201518160080155610120820151816009015561014082015181600a015561016082015181600b0155505060035f3373ffffffffffffffffffffffffffffffffffffffff1673ffffffffffffffffffffffffffffffffffffffff1681526020019081526020015f20815f0151908060018154018082558091505060019003905f5260205f20015f909190919091505550505050505050505050565b6002602052815f5260405f208181548110610f84575f80fd5b905f5260205f20015f91509150505481565b60018181548110610fa5575f80fd5b905f5260205f2090600c02015f91509050805f015490806001015f9054906101000a900473ffffffffffffffffffffffffffffffffffffffff1690806003018054610fef90612cdd565b80601f016020809104026020016040519081016040528092919081815260200182805461101b90612cdd565b80156110665780601f1061103d57610100808354040283529160200191611066565b820191905f5260205f20905b81548152906001019060200180831161104957829003601f168201915b50505050509080600401805461107b90612cdd565b80601f01602080910402602001604051908101604052809291908181526020018280546110a790612cdd565b80156110f25780601f106110c9576101008083540402835291602001916110f2565b820191905f5260205f20905b8154815290600101906020018083116110d557829003601f168201915b50505050509080600501549080600601549080600701549080600801549080600901549080600a01549080600b015490508b565b60606001805480602002602001604051908101604052809291908181526020015f905b82821015611412578382905f5260205f2090600c0201604051806101800160405290815f8201548152602001600182015f9054906101000a900473ffffffffffffffffffffffffffffffffffffffff1673ffffffffffffffffffffffffffffffffffffffff1673ffffffffffffffffffffffffffffffffffffffff16815260200160028201805480602002602001604051908101604052809291908181526020015f905b82821015611295578382905f5260205f2001805461120a90612cdd565b80601f016020809104026020016040519081016040528092919081815260200182805461123690612cdd565b80156112815780601f1061125857610100808354040283529160200191611281565b820191905f5260205f20905b81548152906001019060200180831161126457829003601f168201915b5050505050815260200190600101906111ed565b5050505081526020016003820180546112ad90612cdd565b80601f01602080910402602001604051908101604052809291908181526020018280546112d990612cdd565b80156113245780601f106112fb57610100808354040283529160200191611324565b820191905f5260205f20905b81548152906001019060200180831161130757829003601f168201915b5050505050815260200160048201805461133d90612cdd565b80601f016020809104026020016040519081016040528092919081815260200182805461136990612cdd565b80156113b45780601f1061138b576101008083540402835291602001916113b4565b820191905f5260205f20905b81548152906001019060200180831161139757829003601f168201915b505050505081526020016005820154815260200160068201548152602001600782015481526020016008820154815260200160098201548152602001600a8201548152602001600b8201548152505081526020019060010190611149565b50505050905090565b6003602052815f5260405f208181548110611434575f80fd5b905f5260205f20015f91509150505481565b600180549050811061148d576040517f08c379a000000000000000000000000000000000000000000000000000000000815260040161148490612d57565b60405180910390fd5b5f600182815481106114a2576114a1612d75565b5b905f5260205f2090600c0201905080600601543410156114f7576040517f08c379a00000000000000000000000000000000000000000000000000000000081526004016114ee906130c0565b60405180910390fd5b5f816001015f9054906101000a900473ffffffffffffffffffffffffffffffffffffffff1690508073ffffffffffffffffffffffffffffffffffffffff166108fc836006015490811502906040515f60405180830381858888f19350505050158015611565573d5f803e3d5ffd5b5060035f3373ffffffffffffffffffffffffffffffffffffffff1673ffffffffffffffffffffffffffffffffffffffff1681526020019081526020015f2083908060018154018082558091505060019003905f5260205f20015f9091909190915055505050565b5f805490508110611612576040517f08c379a000000000000000000000000000000000000000000000000000000000815260040161160990612dec565b60405180910390fd5b5f80828154811061162657611625612d75565b5b905f5260205f2090600c02019050806006015434101561167b576040517f08c379a0000000000000000000000000000000000000000000000000000000008152600401611672906130c0565b60405180910390fd5b5f816001015f9054906101000a900473ffffffffffffffffffffffffffffffffffffffff1690508073ffffffffffffffffffffffffffffffffffffffff166108fc836006015490811502906040515f60405180830381858888f193505050501580156116e9573d5f803e3d5ffd5b5060025f3373ffffffffffffffffffffffffffffffffffffffff1673ffffffffffffffffffffffffffffffffffffffff1681526020019081526020015f2083908060018154018082558091505060019003905f5260205f20015f9091909190915055505050565b60605f805480602002602001604051908101604052809291908181526020015f905b82821015611a3b578382905f5260205f2090600c0201604051806101800160405290815f8201548152602001600182015f9054906101000a900473ffffffffffffffffffffffffffffffffffffffff1673ffffffffffffffffffffffffffffffffffffffff1673ffffffffffffffffffffffffffffffffffffffff16815260200160028201805480602002602001604051908101604052809291908181526020015f905b828210156118be578382905f5260205f2001805461183390612cdd565b80601f016020809104026020016040519081016040528092919081815260200182805461185f90612cdd565b80156118aa5780601f10611881576101008083540402835291602001916118aa565b820191905f5260205f20905b81548152906001019060200180831161188d57829003601f168201915b505050505081526020019060010190611816565b5050505081526020016003820180546118d690612cdd565b80601f016020809104026020016040519081016040528092919081815260200182805461190290612cdd565b801561194d5780601f106119245761010080835404028352916020019161194d565b820191905f5260205f20905b81548152906001019060200180831161193057829003601f168201915b5050505050815260200160048201805461196690612cdd565b80601f016020809104026020016040519081016040528092919081815260200182805461199290612cdd565b80156119dd5780601f106119b4576101008083540402835291602001916119dd565b820191905f5260205f20905b8154815290600101906020018083116119c057829003601f168201915b505050505081526020016005820154815260200160068201548152602001600782015481526020016008820154815260200160098201548152602001600a8201548152602001600b8201548152505081526020019060010190611772565b50505050905090565b5f6040518061018001604052805f8054905081526020013373ffffffffffffffffffffffffffffffffffffffff1681526020018b81526020018a81526020018981526020018881526020018781526020014281526020018681526020018581526020018481526020018381525090505f81908060018154018082558091505060019003905f5260205f2090600c02015f909190919091505f820151815f01556020820151816001015f6101000a81548173ffffffffffffffffffffffffffffffffffffffff021916908373ffffffffffffffffffffffffffffffffffffffff1602179055506040820151816002019080519060200190611b45929190611c2e565b506060820151816003019081611b5b9190612fa7565b506080820151816004019081611b719190612fa7565b5060a0820151816005015560c0820151816006015560e082015181600701556101008201518160080155610120820151816009015561014082015181600a015561016082015181600b0155505060025f3373ffffffffffffffffffffffffffffffffffffffff1673ffffffffffffffffffffffffffffffffffffffff1681526020019081526020015f20815f0151908060018154018082558091505060019003905f5260205f20015f909190919091505550505050505050505050565b828054828255905f5260205f20908101928215611c74579160200282015b82811115611c73578251829081611c639190612fa7565b5091602001919060010190611c4c565b5b509050611c819190611c85565b5090565b5b80821115611ca4575f8181611c9b9190611ca8565b50600101611c86565b5090565b508054611cb490612cdd565b5f825580601f10611cc55750611ce2565b601f0160209004905f5260205f2090810190611ce19190611ce5565b5b50565b5b80821115611cfc575f815f905550600101611ce6565b5090565b5f604051905090565b5f80fd5b5f80fd5b5f73ffffffffffffffffffffffffffffffffffffffff82169050919050565b5f611d3a82611d11565b9050919050565b611d4a81611d30565b8114611d54575f80fd5b50565b5f81359050611d6581611d41565b92915050565b5f60208284031215611d8057611d7f611d09565b5b5f611d8d84828501611d57565b91505092915050565b5f81519050919050565b5f82825260208201905092915050565b5f819050602082019050919050565b5f819050919050565b611dd181611dbf565b82525050565b5f611de28383611dc8565b60208301905092915050565b5f602082019050919050565b5f611e0482611d96565b611e0e8185611da0565b9350611e1983611db0565b805f5b83811015611e49578151611e308882611dd7565b9750611e3b83611dee565b925050600181019050611e1c565b5085935050505092915050565b5f6020820190508181035f830152611e6e8184611dfa565b905092915050565b5f819050919050565b611e8881611e76565b8114611e92575f80fd5b50565b5f81359050611ea381611e7f565b92915050565b5f60208284031215611ebe57611ebd611d09565b5b5f611ecb84828501611e95565b91505092915050565b611edd81611e76565b82525050565b611eec81611d30565b82525050565b5f81519050919050565b5f82825260208201905092915050565b8281835e5f83830152505050565b5f601f19601f8301169050919050565b5f611f3482611ef2565b611f3e8185611efc565b9350611f4e818560208601611f0c565b611f5781611f1a565b840191505092915050565b5f61016082019050611f765f83018e611ed4565b611f83602083018d611ee3565b8181036040830152611f95818c611f2a565b90508181036060830152611fa9818b611f2a565b9050611fb8608083018a611ed4565b611fc560a0830189611ed4565b611fd260c0830188611ed4565b611fdf60e0830187611ed4565b611fed610100830186611ed4565b611ffb610120830185611ed4565b612009610140830184611ed4565b9c9b505050505050505050505050565b5f81519050919050565b5f82825260208201905092915050565b5f819050602082019050919050565b5f82825260208201905092915050565b5f61205c82611ef2565b6120668185612042565b9350612076818560208601611f0c565b61207f81611f1a565b840191505092915050565b5f6120958383612052565b905092915050565b5f602082019050919050565b5f6120b382612019565b6120bd8185612023565b9350836020820285016120cf85612033565b805f5b8581101561210a57848403895281516120eb858261208a565b94506120f68361209d565b925060208a019950506001810190506120d2565b50829750879550505050505092915050565b61212581611dbf565b82525050565b5f6101808201905061213f5f83018f611ed4565b61214c602083018e611ee3565b818103604083015261215e818d6120a9565b90508181036060830152612172818c611f2a565b90508181036080830152612186818b611f2a565b905061219560a083018a611ed4565b6121a260c0830189611ed4565b6121af60e0830188611ed4565b6121bd610100830187611ed4565b6121cb610120830186611ed4565b6121d961014083018561211c565b6121e761016083018461211c565b9d9c50505050505050505050505050565b5f6101808201905061220c5f83018f611ed4565b612219602083018e611ee3565b818103604083015261222b818d6120a9565b9050818103606083015261223f818c611f2a565b90508181036080830152612253818b611f2a565b905061226260a083018a611ed4565b61226f60c0830189611ed4565b61227c60e0830188611ed4565b61228a610100830187611ed4565b612298610120830186611ed4565b6122a6610140830185611ed4565b6122b4610160830184611ed4565b9d9c50505050505050505050505050565b5f80fd5b7f4e487b71000000000000000000000000000000000000000000000000000000005f52604160045260245ffd5b6122ff82611f1a565b810181811067ffffffffffffffff8211171561231e5761231d6122c9565b5b80604052505050565b5f612330611d00565b905061233c82826122f6565b919050565b5f67ffffffffffffffff82111561235b5761235a6122c9565b5b602082029050602081019050919050565b5f80fd5b5f80fd5b5f67ffffffffffffffff82111561238e5761238d6122c9565b5b61239782611f1a565b9050602081019050919050565b828183375f83830152505050565b5f6123c46123bf84612374565b612327565b9050828152602081018484840111156123e0576123df612370565b5b6123eb8482856123a4565b509392505050565b5f82601f830112612407576124066122c5565b5b81356124178482602086016123b2565b91505092915050565b5f61243261242d84612341565b612327565b905080838252602082019050602084028301858111156124555761245461236c565b5b835b8181101561249c57803567ffffffffffffffff81111561247a576124796122c5565b5b80860161248789826123f3565b85526020850194505050602081019050612457565b5050509392505050565b5f82601f8301126124ba576124b96122c5565b5b81356124ca848260208601612420565b91505092915050565b6124dc81611dbf565b81146124e6575f80fd5b50565b5f813590506124f7816124d3565b92915050565b5f805f805f805f805f6101208a8c03121561251b5761251a611d09565b5b5f8a013567ffffffffffffffff81111561253857612537611d0d565b5b6125448c828d016124a6565b99505060208a013567ffffffffffffffff81111561256557612564611d0d565b5b6125718c828d016123f3565b98505060408a013567ffffffffffffffff81111561259257612591611d0d565b5b61259e8c828d016123f3565b97505060606125af8c828d01611e95565b96505060806125c08c828d01611e95565b95505060a06125d18c828d01611e95565b94505060c06125e28c828d01611e95565b93505060e06125f38c828d016124e9565b9250506101006126058c828d016124e9565b9150509295985092959850929598565b5f806040838503121561262b5761262a611d09565b5b5f61263885828601611d57565b925050602061264985828601611e95565b9150509250929050565b5f6020820190506126665f83018461211c565b92915050565b5f610160820190506126805f83018e611ed4565b61268d602083018d611ee3565b818103604083015261269f818c611f2a565b905081810360608301526126b3818b611f2a565b90506126c2608083018a611ed4565b6126cf60a0830189611ed4565b6126dc60c0830188611ed4565b6126e960e0830187611ed4565b6126f7610100830186611ed4565b61270561012083018561211c565b61271361014083018461211c565b9c9b505050505050505050505050565b5f81519050919050565b5f82825260208201905092915050565b5f819050602082019050919050565b61275581611e76565b82525050565b61276481611d30565b82525050565b5f82825260208201905092915050565b5f61278482612019565b61278e818561276a565b9350836020820285016127a085612033565b805f5b858110156127db57848403895281516127bc858261208a565b94506127c78361209d565b925060208a019950506001810190506127a3565b50829750879550505050505092915050565b5f61018083015f8301516128035f86018261274c565b506020830151612816602086018261275b565b506040830151848203604086015261282e828261277a565b915050606083015184820360608601526128488282612052565b915050608083015184820360808601526128628282612052565b91505060a083015161287760a086018261274c565b5060c083015161288a60c086018261274c565b5060e083015161289d60e086018261274c565b506101008301516128b261010086018261274c565b506101208301516128c761012086018261274c565b506101408301516128dc610140860182611dc8565b506101608301516128f1610160860182611dc8565b508091505092915050565b5f61290783836127ed565b905092915050565b5f602082019050919050565b5f61292582612723565b61292f818561272d565b9350836020820285016129418561273d565b805f5b8581101561297c578484038952815161295d85826128fc565b94506129688361290f565b925060208a01995050600181019050612944565b50829750879550505050505092915050565b5f6020820190508181035f8301526129a6818461291b565b905092915050565b5f81519050919050565b5f82825260208201905092915050565b5f819050602082019050919050565b5f61018083015f8301516129ed5f86018261274c565b506020830151612a00602086018261275b565b5060408301518482036040860152612a18828261277a565b91505060608301518482036060860152612a328282612052565b91505060808301518482036080860152612a4c8282612052565b91505060a0830151612a6160a086018261274c565b5060c0830151612a7460c086018261274c565b5060e0830151612a8760e086018261274c565b50610100830151612a9c61010086018261274c565b50610120830151612ab161012086018261274c565b50610140830151612ac661014086018261274c565b50610160830151612adb61016086018261274c565b508091505092915050565b5f612af183836129d7565b905092915050565b5f602082019050919050565b5f612b0f826129ae565b612b1981856129b8565b935083602082028501612b2b856129c8565b805f5b85811015612b665784840389528151612b478582612ae6565b9450612b5283612af9565b925060208a01995050600181019050612b2e565b50829750879550505050505092915050565b5f6020820190508181035f830152612b908184612b05565b905092915050565b5f805f805f805f805f6101208a8c031215612bb657612bb5611d09565b5b5f8a013567ffffffffffffffff811115612bd357612bd2611d0d565b5b612bdf8c828d016124a6565b99505060208a013567ffffffffffffffff811115612c0057612bff611d0d565b5b612c0c8c828d016123f3565b98505060408a013567ffffffffffffffff811115612c2d57612c2c611d0d565b5b612c398c828d016123f3565b9750506060612c4a8c828d01611e95565b9650506080612c5b8c828d01611e95565b95505060a0612c6c8c828d01611e95565b94505060c0612c7d8c828d01611e95565b93505060e0612c8e8c828d01611e95565b925050610100612ca08c828d01611e95565b9150509295985092959850929598565b7f4e487b71000000000000000000000000000000000000000000000000000000005f52602260045260245ffd5b5f6002820490506001821680612cf457607f821691505b602082108103612d0757612d06612cb0565b5b50919050565b7f496e646578206f7574206f6620626f756e647320666f722067656e6572616c005f82015250565b5f612d41601f83611efc565b9150612d4c82612d0d565b602082019050919050565b5f6020820190508181035f830152612d6e81612d35565b9050919050565b7f4e487b71000000000000000000000000000000000000000000000000000000005f52603260045260245ffd5b7f496e646578206f7574206f6620626f756e647320666f722073746f636b7300005f82015250565b5f612dd6601e83611efc565b9150612de182612da2565b602082019050919050565b5f6020820190508181035f830152612e0381612dca565b9050919050565b5f819050815f5260205f209050919050565b5f6020601f8301049050919050565b5f82821b905092915050565b5f60088302612e667fffffffffffffffffffffffffffffffffffffffffffffffffffffffffffffffff82612e2b565b612e708683612e2b565b95508019841693508086168417925050509392505050565b5f819050919050565b5f612eab612ea6612ea184611e76565b612e88565b611e76565b9050919050565b5f819050919050565b612ec483612e91565b612ed8612ed082612eb2565b848454612e37565b825550505050565b5f90565b612eec612ee0565b612ef7818484612ebb565b505050565b5b81811015612f1a57612f0f5f82612ee4565b600181019050612efd565b5050565b601f821115612f5f57612f3081612e0a565b612f3984612e1c565b81016020851015612f48578190505b612f5c612f5485612e1c565b830182612efc565b50505b505050565b5f82821c905092915050565b5f612f7f5f1984600802612f64565b1980831691505092915050565b5f612f978383612f70565b9150826002028217905092915050565b612fb082611ef2565b67ffffffffffffffff811115612fc957612fc86122c9565b5b612fd38254612cdd565b612fde828285612f1e565b5f60209050601f83116001811461300f575f8415612ffd578287015190505b6130078582612f8c565b86555061306e565b601f19841661301d86612e0a565b5f5b828110156130445784890151825560018201915060208501945060208101905061301f565b86831015613061578489015161305d601f891682612f70565b8355505b6001600288020188555050505b505050505050565b7f496e73756666696369656e74207061796d656e740000000000000000000000005f82015250565b5f6130aa601483611efc565b91506130b582613076565b602082019050919050565b5f6020820190508181035f8301526130d78161309e565b905091905056fea2646970667358221220d1362c20e9e9f6cf0bc901149a92af951606015a0d96b966b3144ad35955488764736f6c634300081a0033",
  "immutableReferences": {},
  "source": "// SPDX-License-Identifier: MIT\r\npragma solidity ^0.8.0;\r\n\r\ncontract ArticleStorage {\r\n    struct StockArticle {\r\n        uint index;\r\n        address owner;\r\n        string[] tags;\r\n        string image;\r\n        string content;\r\n        uint256 visibleWords;\r\n        uint256 price;\r\n        uint256 dateUploaded;\r\n        uint256 aiRating;\r\n        uint256 userRating;\r\n        uint256 startDate;\r\n        uint256 endDate;\r\n    }\r\n\r\n    struct GeneralArticle {\r\n        uint index;\r\n        address owner;\r\n        string[] tags;\r\n        string image;\r\n        string content;\r\n        uint256 visibleWords;\r\n        uint256 price;\r\n        uint256 dateUploaded;\r\n        uint256 aiRating;\r\n        uint256 userRating;\r\n        int256 latitude;\r\n        int256 longitude;\r\n    }\r\n\r\n    StockArticle[] public stocks;\r\n    GeneralArticle[] public general;\r\n\r\n    mapping (address => int[]) public stockopt;\r\n    mapping (address => int[]) public Generalopt;\r\n\r\n    function storeStockArticle(\r\n        string[] memory _tags, \r\n        string memory _image ,\r\n        string memory _content, \r\n        uint256 _visibleWords, \r\n        uint256 _price, \r\n        uint256 _aiRating, \r\n        uint256 _userRating, \r\n        uint256 _startDate,\r\n        uint256 _endDate\r\n    ) public {\r\n\r\n        StockArticle memory newStockArticle = StockArticle({\r\n            index: stocks.length,\r\n            owner: msg.sender,\r\n            tags: _tags,\r\n            image: _image,\r\n            content: _content,\r\n            visibleWords: _visibleWords,\r\n            price: _price,\r\n            dateUploaded: block.timestamp,\r\n            aiRating: _aiRating,\r\n            userRating: _userRating,\r\n            startDate: _startDate,\r\n            endDate: _endDate\r\n        });\r\n\r\n        stocks.push(newStockArticle);\r\n        stockopt[msg.sender].push(int(newStockArticle.index));\r\n    }\r\n\r\n    function storeGeneralArticle(\r\n        string[] memory _tags,\r\n        string memory _image, \r\n        string memory _content, \r\n        uint256 _visibleWords, \r\n        uint256 _price, \r\n        uint256 _aiRating, \r\n        uint256 _userRating, \r\n        int256 _latitude,\r\n        int256 _longitude\r\n    ) public {\r\n        GeneralArticle memory newGeneralArticle = GeneralArticle({\r\n            index: general.length,\r\n            owner: msg.sender,\r\n            tags: _tags,\r\n            image: _image,\r\n            content: _content,\r\n            visibleWords: _visibleWords,\r\n            price: _price,\r\n            dateUploaded: block.timestamp,\r\n            aiRating: _aiRating,\r\n            userRating: _userRating,\r\n            latitude: _latitude,\r\n            longitude: _longitude\r\n        });\r\n        \r\n        general.push(newGeneralArticle);\r\n        Generalopt[msg.sender].push(int(newGeneralArticle.index));\r\n    }\r\n\r\n    function getStockArticle(uint256 index) public view returns (\r\n        uint,\r\n        address, \r\n        string[] memory, \r\n        string memory,\r\n        string memory, \r\n        uint256, \r\n        uint256, \r\n        uint256, \r\n        uint256, \r\n        uint256, \r\n        uint256,\r\n        uint256\r\n    ) {\r\n        require(index < stocks.length, \"Index out of bounds for stocks\");\r\n        StockArticle memory article = stocks[index];\r\n        return (\r\n            article.index,\r\n            article.owner, \r\n            article.tags, \r\n            article.image,\r\n            article.content, \r\n            article.visibleWords, \r\n            article.price, \r\n            article.dateUploaded, \r\n            article.aiRating, \r\n            article.userRating,\r\n            article.startDate,\r\n            article.endDate\r\n        );\r\n    }\r\n\r\n    function getGeneralArticle(uint256 index) public view returns (\r\n        uint,\r\n        address, \r\n        string[] memory, \r\n        string memory,\r\n        string memory, \r\n        uint256, \r\n        uint256, \r\n        uint256, \r\n        uint256, \r\n        uint256,\r\n        int256,\r\n        int256\r\n    ) {\r\n        require(index < general.length, \"Index out of bounds for general\");\r\n        GeneralArticle memory article = general[index];\r\n        return (\r\n            article.index,\r\n            article.owner, \r\n            article.tags, \r\n            article.image,\r\n            article.content, \r\n            article.visibleWords, \r\n            article.price, \r\n            article.dateUploaded, \r\n            article.aiRating, \r\n            article.userRating,\r\n            article.latitude,\r\n            article.longitude\r\n        );\r\n    }\r\n\r\n    function payForStockArticle(uint256 index) public payable {\r\n        require(index < stocks.length, \"Index out of bounds for stocks\");\r\n        StockArticle storage article = stocks[index];\r\n\r\n        require(msg.value >= article.price, \"Insufficient payment\");\r\n\r\n        address payable owner = payable(article.owner);\r\n        owner.transfer(article.price);\r\n\r\n        stockopt[msg.sender].push(int(index));\r\n    }\r\n\r\n\r\n    function payForGeneralArticle(uint256 index) public payable {\r\n        require(index < general.length, \"Index out of bounds for general\");\r\n        GeneralArticle storage article = general[index];\r\n\r\n        require(msg.value >= article.price, \"Insufficient payment\");\r\n\r\n        address payable owner = payable(article.owner);\r\n        owner.transfer(article.price);\r\n\r\n        Generalopt[msg.sender].push(int(index));\r\n    }\r\n\r\n    function getStockOpt(address user) public view returns (int[] memory) {\r\n        return stockopt[user];\r\n    }\r\n\r\n    function getGeneralOpt(address user) public view returns (int[] memory) {\r\n        return Generalopt[user];\r\n    }\r\n\r\n    function getAllStockArticles() public view returns (StockArticle[] memory) {\r\n        return stocks;\r\n    }\r\n\r\n    function getAllGeneralArticles() public view returns (GeneralArticle[] memory) {\r\n        return general;\r\n    }\r\n}\r\n",
  "sourcePath": "E:\\website\\Bitcoin-games\\Web3\\contracts\\mainScript.sol",
  "compiler": {
    "name": "solc",
    "version": "0.8.26+commit.8a97fa7a.Emscripten.clang"
  },
  "schemaVersion": "3.4.16",
  "updatedAt": "2024-07-10T08:30:27.358Z",
  "devdoc": {
    "kind": "dev",
    "methods": {},
    "version": 1
  },
  "userdoc": {
    "kind": "user",
    "methods": {},
    "version": 1
  }
}